:020000020000FC
:0200000001C13C
:0200040018954D
:02000800189549
:02000C00189545
:02001000189541
:0200140018953D
:02001800189539
:02001C00189535
:02002000189531
:0200240018952D
:02002800189529
:02002C00189525
:02003000189521
:020034000FC0FB
:02003800189519
:02003C00189515
:02004000189511
:0200440018950D
:02004800189509
:02004C002FC0C3
:02005000189501
:100054000F930FB70F931F932F933F93AF93BF93B8
:100064001BB12CB11C71B9F4A0E6B0E030E8112743
:10007400A30FB11F2C93339530938000303211F4C9
:100084001093800032E83395303229F410938200C3
:1000940011E010938300BF91AF913F912F911F9175
:1000A4000F910FBF0F9118950F930FB70F932F93C5
:1000B400BF93AF93DF93CF93FF93EF93F0E0E5E724
:1000C400002401B1069506950695E00FF01D0995EB
:1000D400EF91FF91CF91DF91AF91BF912F910F914C
:1000E4000FBF0F9118950BC012C011C01CC02BC0BC
:1000F40032C03DC044C04BC054C05BC072C001E0BC
:100104000093850000928B0005E906BF08952091B5
:100114008400220F00918600002309F4016023B9B2
:1001240005E806BF0895E0918E00F0918F000091DC
:100134008700E00FF01D208103950093870023B909
:1001440005E806BF089500928B0002E00093850045
:1001540005E906BF089500918700209188000217E1
:1001640021F404E906BF00928B00DDCF089504E07A
:100174000093850000928B0005E906BF089508E00E
:100184000093850000928B0005E906BF0895009155
:100194008800013019F401E806BF089501EC06BF98
:1001A400089502E00093850000928B0001E906BFE8
:1001B400089523B1E0918C00F0918D0000918700A7
:1001C400E00FF01D20830395009387000395209191
:1001D4008800021719F405E806BF089505EC06BF68
:1001E400089523B1E0918C00F0918D000091870077
:1001F400E00FF01D208305E906BF00928B000895EF
:10020400E0E6F0E000270193EF35E9F7F830D9F79D
:10021400EEE1FF27EA95F083E9F70FE50DBF08E06B
:100224000EBF00E000BD07E609B908E10AB906E01F
:1002340000BD08E400B900E001B9A3D011D165D133
:10024400FDCF5D9BFECF0CB908955F9BFECF0CB133
:1002540008950591003011F0F4DFFBCF089502E812
:100264000030E9F3A0E6B0E0009181001127A00F6F
:10027400B11F3C910395003211F410938100F8945E
:10028400109182001A95009382007894032F0895A8
:1002940004EA06BF089504EA06BF089504E906BF08
:1002A400089503B904E806BF0BD0089504EC06BF13
:1002B40007D003B1089504E806BF02D003B108953E
:1002C40006B707FFFDCF0895E3DF000FEADF012F34
:1002D400E8DF0991E6DF2A95E1F7E0DF0895D8DF4A
:1002E400000FDFDF012FDDDFD6DF0160DADFDEDFC5
:1002F40009932A95E1F7D2DF0895CADF08E7D1DF31
:10030400012FCFDF022FCDDFC9DF08950F93C0DFA8
:1003140008E7C7DF00E4C5DF0F9138E040E8C1DF3C
:100324004A95E9F73A95D1F7B9DF0895105225E0D7
:10033400129FEA2FFB2FE00DF11DAADF08E7B1DFC2
:1003440000E4AFDF15E00591ACDF1A95E1F7002773
:10035400A8DFA4DF0895AEEABDE7F0919F00E09125
:10036400A0001591F0939F00E093A000103011F0CD
:10037400DDDFF3CF08950D91003011F0D7DFFBCF0F
:10038400089510E02EEAB9DF10E025EDB6DF10E0A5
:1003940020E8B3DF10E028EAB0DF10E02FE3ADDFA0
:1003A40010E023EDAADF10E020E0A7DF10E020E456
:1003B400A4DF10E02DE8A1DF10E024E19EDF10E0CF
:1003C40020E29BDF10E020E098DF10E021EA95DFD7
:1003D40010E028EC92DF10E02AED8FDF10E022E13C
:1003E4008CDF10E021E889DF10E02FEC86DF10E0DD
:1003F40029ED83DF10E021EF80DF10E02BED7DDFBE
:1004040010E020E47ADF10E024EA77DF10E026EA47
:1004140074DF10E02FEA71DF089540ED58EC5A952F
:10042400F1F74A95E1F7089500271127B89831E0CC
:1004340027E01127B09905C01A301CF460D0139539
:10044400F9CF1127B09B05C01F301CF458D0139569
:10045400F9CF15300CF0032B330F2A9551F708957B
:10046400F894B89AC098000050D0C09AB898000088
:100474005DD0B09942C066D0B09B3FC0B099FECF6A
:10048400A0E9B0E0002700939500112731E044274C
:10049400002700939600B09BFECF5FD0B099432B0A
:1004A400330FB099FECF0091960003950093960008
:1004B400083089F7552768E0441F57956A95E1F796
:1004C400452F4D93009195000395009395000530B9
:1004D400E1F60027A0E9B0E024E01D91010F2A9580
:1004E400E1F70093970011E01093980010919400A5
:1004F400011719F0112710939800789408952F93F9
:1005040021E32A95F1F700C02F912F933F934F9346
:1005140022E036E74EEF4A95F1F73A95E1F72A954E
:10052400D1F700004F913F912F9108952F933F935E
:1005340022E039E13A95F1F72A95E1F700003F917D
:100544002F9108952F933F9322E034EA3A95F1F7DF
:100554002A95E1F73F912F9108952F932CE92A953D
:10056400F1F700002F91089593DE0EEE9ADE00ED70
:1005740098DE8EDE0FEE95DE9EDE90DE00939C000C
:1005840008950AE510E2C1EAD0E021E0A8DE009176
:10059400A100013819F50AE510E0C1EAD0E021E034
:1005A4009EDE0091A1000071D9F00AE514EFC1EAC2
:1005B400D0E020E089DE0AE510E0C1EAD0E021E0E5
:1005C4008EDE0091A100017069F000E30AE511E0FC
:1005D400C1EAD0E021E078DE20E006C021E004C0DA
:1005E40022E002C024E000C008950AE510E0C1EA58
:1005F400D0E021E074DE0091A100087039F00AE532
:1006040012E0C1EAD0E028E06ADE01E0089511E5D5
:10061400728AE2E1F6E0A1EAB0E004E015911D93EC
:100624001A95E1F70AE51FEFC1EAD0E024E04CDEB9
:02063400089527
:107DAE00000000000000005F000000070007001444
:107DBE007F147F14242A7F2A122313086462364903
:107DCE005522500005030000001C224100004122F4
:107DDE001C0014083E081408083E08080050300025
:107DEE00000808080808006060000020100804025F
:107DFE003E5149453E00427F400042615149462175
:107E0E0041454B311814127F1027454545393C4AE0
:107E1E004949300171090503364949493606494930
:107E2E00291E003636000000563600000814224186
:107E3E0000141414141400412214080201510906EE
:107E4E00324979413E7E1111117E7F494949363EB4
:107E5E00414141227F4141221C7F494949417F09CD
:107E6E000909013E4149497A7F0808087F00417F90
:107E7E0041002040413F017F081422417F40404095
:107E8E00407F020C027F7F0408107F3E4141413E3D
:107E9E007F090909063E4151215E7F09192946468F
:107EAE004949493101017F01013F4040403F1F20B8
:107EBE0040201F3F4038403F63140814630708708A
:087ECE0008076151494543001A
:00000001FF
