:020000020000FC
:0200000029C015
:0200040018954D
:02000800189549
:02000C00189545
:02001000189541
:0200140018953D
:02001800189539
:02001C00189535
:02002000189531
:0200240018952D
:02002800189529
:02002C00189525
:02003000189521
:0200340018951D
:02003800189519
:02003C00189515
:02004000189511
:0200440018950D
:02004800189509
:02004C00189505
:02005000189501
:1000540000E000BD07E609B908E10AB906E800BDF9
:1000640008E400B900E001B98AD0F8D04CD1FDCF42
:100074005D9BFECF0CB908955F9BFECF0CB1089534
:100084000591003011F0F4DFFBCF089504EA06BFB8
:10009400089504EA06BF089504E906BF089503B964
:1000A40004E806BF0BD0089504EC06BF07D003B1E3
:1000B400089504E806BF02D003B1089506B707FF08
:1000C400FDCF0895E3DF000FEADF012FE8DF099198
:1000D400E6DF2A95E1F7E0DF0895D8DF000FDFDFE0
:1000E400012FDDDFD6DF0160DADFDEDF09932A9539
:1000F400E1F7D2DF0895CADF08E7D1DF012FCFDFB0
:10010400022FCDDFC9DF08950F93C0DF08E7C7DFF3
:1001140000E4C5DF0F9138E040E8C1DF4A95E9F714
:100124003A95D1F7B9DF0895105225E0129FEA2FCE
:10013400FB2FE00DF11DAADF08E7B1DF00E4AFDF1C
:1001440015E00591ACDF1A95E1F70027A8DFA4DFDD
:100154000895AEEABDE7F0916F00E091700015914B
:10016400F0936F00E0937000103011F0DDDFF3CFF7
:1001740008950D91003011F0D7DFFBCF089510E002
:100184002EEAB9DF10E025EDB6DF10E020E8B3DF9A
:1001940010E028EAB0DF10E02FE3ADDF10E023ED3C
:1001A400AADF10E020E0A7DF10E020E4A4DF10E0E5
:1001B4002DE8A1DF10E024E19EDF10E020E29BDFC8
:1001C40010E020E098DF10E021EA95DF10E028EC51
:1001D40092DF10E02AED8FDF10E022E18CDF10E0E7
:1001E40021E889DF10E02FEC86DF10E029ED83DFC2
:1001F40010E021EF80DF10E02BED7DDF10E020E444
:100204007ADF10E024EA77DF10E026EA74DF10E0FA
:100214002FEA71DF089540ED58EC5A95F1F74A95AD
:10022400E1F7089500271127B89831E027E0112756
:10023400B09905C01A301CF460D01395F9CF11277A
:10024400B09B05C01F301CF458D01395F9CF15305E
:100254000CF0032B330F2A9551F70895F894B89AAC
:10026400C098000050D0C09AB89800005DD0B099F2
:1002740042C066D0B09B3FC0B099FECFA0E6B0E0CC
:10028400002700936500112731E0442700270093DD
:100294006600B09BFECF5FD0B099432B330FB0996B
:1002A400FECF00916600039500936600083089F73D
:1002B400552768E0441F57956A95E1F7452F4D93FC
:1002C400009165000395009365000530E1F6002771
:1002D400A0E6B0E024E01D91010F2A95E1F7009318
:1002E400670011E01093680010916400011719F081
:1002F400112710936800789408952F9321E32A9589
:10030400F1F700C02F912F933F934F9322E036E7EC
:100314004EEF4A95F1F73A95E1F72A95D1F70000A7
:100324004F913F912F9108952F933F9322E039E10C
:100334003A95F1F72A95E1F700003F912F9108953E
:100344002F933F9322E034EA3A95F1F72A95E1F7A7
:100354003F912F9108952F932CE92A95F1F70000EE
:100364002F91089593DE0EEE9ADE00ED98DE8EDE78
:0E0374000FEE95DE9EDE90DE00936C00089585
:107DAE00000000000000005F000000070007001444
:107DBE007F147F14242A7F2A122313086462364903
:107DCE005522500005030000001C224100004122F4
:107DDE001C0014083E081408083E08080050300025
:107DEE00000808080808006060000020100804025F
:107DFE003E5149453E00427F400042615149462175
:107E0E0041454B311814127F1027454545393C4AE0
:107E1E004949300171090503364949493606494930
:107E2E00291E003636000000563600000814224186
:107E3E0000141414141400412214080201510906EE
:107E4E00324979413E7E1111117E7F494949363EB4
:107E5E00414141227F4141221C7F494949417F09CD
:107E6E000909013E4149497A7F0808087F00417F90
:107E7E0041002040413F017F081422417F40404095
:107E8E00407F020C027F7F0408107F3E4141413E3D
:107E9E007F090909063E4151215E7F09192946468F
:107EAE004949493101017F01013F4040403F1F20B8
:107EBE0040201F3F4038403F63140814630708708A
:107ECE00080761514945430052454C4541534520F1
:107EDE004441544520323032313038313031303334
:027EEE0035005D
:00000001FF
