:020000020000FC
:0200000029C015
:0200040018954D
:02000800189549
:02000C00189545
:02001000189541
:0200140018953D
:02001800189539
:02001C00189535
:02002000189531
:0200240018952D
:02002800189529
:02002C00189525
:02003000189521
:0200340018951D
:02003800189519
:02003C00189515
:02004000189511
:0200440018950D
:02004800189509
:02004C00189505
:02005000189501
:1000540000E000BD07E609B908E10AB906E800BDF9
:1000640008E400B900E001B9E6E3FFE713D0E6E5F0
:10007400FFE710D0ECE7FFE70DD00FEF4DD05DD0D8
:10008400ABD0FDCF5D9BFECF0CB908955F9BFECF37
:100094000CB108950591003011F0F4DFFBCF089501
:1000A4000F9304EA06BF18D00F9108950F9304E943
:1000B40006BF0F9108950F9303B904E806BF0CD04F
:1000C4000F91089504EC06BF07D003B1089504E826
:1000D40006BF02D003B1089506B707FFFDCF089508
:1000E4000F93DEDF08E7E7DF00916C00E4DF0091A7
:1000F4006D00E1DFDBDF0F9108951F9310E0109393
:100104006C001FEA10936D00013019F01EEA109381
:100114006D00E6DF1F9108950F93C2DF08E7CBDF80
:1001240000E4C9DF0F9138E040E8C5DF4A95E9F7FC
:100134003A95D1F7BBDF08950895F894B89AC0981A
:1001440000004AD0C09AB898000057D0B09942C075
:1001540060D0B09B3FC0B099FECFA0E6B0E00027CE
:1001640000936500112731E04427002700936600BF
:10017400B09BFECF59D0B099432B330FB099FECF2B
:1001840000916600039500936600083089F75527AF
:1001940068E0441F57956A95E1F7452F4D93009108
:1001A40065000395009365000530E1F60027A0E69D
:1001B400B0E024E01D91010F2A95E1F70093670058
:1001C40011E01093680010916400011719F01127D1
:1001D40010936800789408952F933F934F9322E0EF
:1001E40036E74EEF4A95F1F73A95E1F72A95D1F7BC
:1001F40000004F913F912F9108952F933F9322E058
:1002040039E13A95F1F72A95E1F700003F912F91F2
:1002140008952F933F9322E034EA3A95F1F72A9513
:10022400E1F73F912F9108952F932CE92A95F1F747
:0602340000002F91089567
:107F360052656C6561736520646174652032352E07
:107F460030362E323032312030393A34300A0D0094
:107F5600546869732070726F6772616D206973204F
:107F660050726F626E696B2D3034206669726D7760
:107F76006172650A0D0050682E442E2053686D69A3
:0C7F8600726B6F204B2E412E200A0D0064
:00000001FF
