:020000020000FC
:0200000029C015
:0200040018954D
:02000800189549
:02000C00189545
:02001000189541
:0200140018953D
:02001800189539
:02001C00189535
:02002000189531
:0200240018952D
:02002800189529
:02002C00189525
:02003000189521
:0200340018951D
:02003800189519
:02003C00189515
:02004000189511
:0200440018950D
:02004800189509
:02004C00189505
:02005000189501
:1000540000E000BD07E609B908E10AB906E800BDF9
:1000640008E400B900E001B9E6E3FFE719D0E6E5EA
:10007400FFE716D0ECE7FFE713D00F9300E00093FF
:100084006C000F9160D005E54ED020D16ED1FDCF2C
:100094005D9BFECF0CB908955F9BFECF0CB1089514
:1000A4000591003011F0F4DFFBCF089508950F930C
:1000B40004EA06BF18D00F9108950F9304E906BF10
:1000C4000F9108950F9303B904E806BF0CD00F9164
:1000D400089504EC06BF07D003B1089504E806BFF1
:1000E40002D003B1089506B707FFFDCF08950F931B
:1000F400DEDF08E7E7DF00916C00E4DF00916D00CC
:10010400E1DFDBDF0F9108951F9310E010936C0083
:100114001FEA10936D00013019F01EEA10936D0070
:10012400E6DF1F9108950F93C2DF08E7CBDF00E4F9
:10013400C9DF0F9138E040E8C5DF4A95E9F73A9501
:10014400D1F7BBDF08950027DFDFB9D00F9300E0BC
:1001540000936C000F910F9305ED00936D000F91C8
:10016400C6DF0F9309E800936D000F91C0DF0F9372
:1001740008EA00936D000F91BADF0F9303ED00932B
:100184006D000F91B4DF0F9300E000936D000F91A9
:10019400AEDF0F9300E400936D000F91A8DF0F937F
:1001A4000DE800936D000F91A2DF0F9304E100931B
:1001B4006D000F919CDF0F9300E200936D000F918F
:1001C40096DF0F9300E000936D000F9190DF0F9383
:1001D40001EA00936D000F918ADF0F9308EC0093FE
:1001E4006D000F9184DF0F930AED00936D000F9162
:1001F4007EDF0F9302E100936D000F9178DF0F9380
:1002040001E800936D000F9172DF0F930FEC0093E0
:100214006D000F916CDF0F9309ED00936D000F914A
:1002240066DF0F9301EF00936D000F9160DF0F9372
:100234000BED00936D000F915ADF0F9300E40093D0
:100244006D000F9154DF0F9304EA00936D000F913A
:100254004EDF002708D001E057DF002764DF0027C6
:10026400112716D008951F930F9300E000936C009C
:100274000F910F9306EA00936D000F91013029F45A
:100284000F9307EA00936D000F9131DF1F910895DA
:1002940000936A0010936B0020EB120F10936D0013
:1002A40026DF0F7000936D0022DF0AE6069506959F
:1002B40006950695006100936D0019DF089540EDE1
:1002C40058EC5A95F1F74A95E1F70895F894B89ADD
:1002D400C09800004AD0C09AB898000057D0B0998E
:1002E40042C060D0B09B3FC0B099FECFA0E6B0E062
:1002F400002700936500112731E04427002700936D
:100304006600B09BFECF59D0B099432B330FB09900
:10031400FECF00916600039500936600083089F7CC
:10032400552768E0441F57956A95E1F7452F4D938B
:10033400009165000395009365000530E1F6002700
:10034400A0E6B0E024E01D91010F2A95E1F70093A7
:10035400670011E01093680010916400011719F010
:10036400112710936800789408952F933F934F9327
:1003740022E036E74EEF4A95F1F73A95E1F72A95F0
:10038400D1F700004F913F912F9108952F933F9300
:1003940022E039E13A95F1F72A95E1F700003F911F
:1003A4002F9108952F933F9322E034EA3A95F1F781
:1003B4002A95E1F73F912F9108952F932CE92A95DF
:0803C400F1F700002F910895EC
:107F360052656C6561736520646174652032352E07
:107F460030362E323032312031303A34390A0D0093
:107F5600546869732070726F6772616D206973204F
:107F660050726F626E696B2D3034206669726D7760
:107F76006172650A0D0050682E442E2053686D69A3
:0C7F8600726B6F204B2E412E200A0D0064
:00000001FF
