:020000020000FC
:0200000029C015
:0200040018954D
:02000800189549
:02000C00189545
:02001000189541
:0200140018953D
:02001800189539
:02001C00189535
:02002000189531
:0200240018952D
:02002800189529
:02002C00189525
:02003000189521
:0200340018951D
:02003800189519
:02003C00189515
:02004000189511
:0200440018950D
:02004800189509
:02004C00189505
:02005000189501
:1000540000E000BD07E609B908E10AB906E800BDF9
:1000640008E400B900E001B9E6E3FFE711D0E6E5F2
:10007400FFE70ED0ECE7FFE70BD09CD0EAD0FDCF32
:100084005D9BFECF0CB908955F9BFECF0CB1089524
:100094000591003011F0F4DFFBCF08950F9304EACB
:1000A40006BF18D00F9108950F9304E906BF0F916E
:1000B40008950F9303B904E806BF0CD00F91089577
:1000C40004EC06BF07D003B1089504E806BF02D0CC
:1000D40003B1089506B707FFFDCF0895DFDF08E7F2
:1000E400E8DF012FE6DF022FE4DFDEDF08950F9360
:1000F400D5DF08E7DEDF00E4DCDF0F9138E040E81D
:10010400D8DF4A95E9F73A95D1F7CEDF089510E0A4
:100114002EEAE4DF10E025EDE1DF10E020E8DEDF89
:1001240010E028EADBDF10E02FE3D8DF10E023ED56
:10013400D5DF10E020E0D2DF10E020E4CFDF10E0D4
:100144002DE8CCDF10E024E1C9DF10E020E2C6DFB7
:1001540010E020E0C3DF10E020EAC0DF10E028EC6C
:10016400BDDF10E02AEDBADF10E022E1B7DF10E0D6
:1001740021E8B4DF10E02FECB1DF10E029EDAEDFB1
:1001840010E021EFABDF10E02BEDA8DF10E020E45E
:10019400A5DF10E024EAA2DF10E026EA9FDF10E0EA
:1001A4002FEA9CDF089540ED58EC5A95F1F74A95F3
:1001B400E1F70895F894B89AC09800004AD0C09A1C
:1001C400B898000057D0B09942C060D0B09B3FC0EF
:1001D400B099FECFA0E6B0E0002700936500112798
:1001E40031E04427002700936600B09BFECF59D02E
:1001F400B099432B330FB099FECF0091660003955D
:1002040000936600083089F7552768E0441F579526
:100214006A95E1F7452F4D9300916500039500938E
:1002240065000530E1F60027A0E6B0E024E01D916A
:10023400010F2A95E1F70093670011E0109368001D
:1002440010916400011719F0112710936800789435
:1002540008952F933F934F9322E036E74EEF4A954C
:10026400F1F73A95E1F72A95D1F700004F913F91C4
:100274002F9108952F933F9322E039E13A95F1F7B6
:100284002A95E1F700003F912F9108952F933F9312
:1002940022E034EA3A95F1F72A95E1F73F912F915C
:1002A40008952F932CE92A95F1F700002F910895D2
:107F360052656C6561736520646174652030342E0A
:107F460030372E323032312030313A35340A0D0096
:107F5600546869732070726F6772616D206973204F
:107F660050726F626E696B2D3034206669726D7760
:107F76006172650A0D0050682E442E2053686D69A3
:0C7F8600726B6F204B2E412E200A0D0064
:00000001FF
