:020000020000FC
:0200000029C015
:0200040018954D
:02000800189549
:02000C00189545
:02001000189541
:0200140018953D
:02001800189539
:02001C00189535
:02002000189531
:0200240018952D
:02002800189529
:02002C00189525
:02003000189521
:0200340018951D
:02003800189519
:02003C00189515
:02004000189511
:0200440018950D
:02004800189509
:02004C00189505
:02005000189501
:1000540000E000BD07E609B908E10AB906E800BDF9
:1000640008E400B900E001B97FD000E049D010E015
:1000740020EB3DD010E020E03AD010E020E137D072
:100084000F9300E000936A000F910F9300E0009338
:100094006B000F9111E544D0BAD008D1FDCF5D9B20
:1000A400FECF0CB908955F9BFECF0CB10895059166
:1000B400003011F0F4DFFBCF089504EA06BF13D03B
:1000C400089504E906BF089503B904E806BF0BD0F8
:1000D400089504EC06BF07D003B1089504E806BFF1
:1000E40002D003B1089506B707FFFDCF0895E5DFF9
:1000F40008E7EADF012FE8DF022FE6DFE2DF0895F9
:100104000F93DBDF08E7E0DF00E4DEDF0F9138E088
:1001140040E8DADF4A95E9F73A95D1F7D2DF089556
:10012400105225E0129FEF93FF93E7EDFEE3E00DFD
:10013400F11DC3DF08E7C8DF00E4C6DF15E0059161
:10014400C3DF1A95E1F70027BFDFFF91EF91089510
:100154000591003011F0E4DFFBCF08950D910030DC
:1001640011F0DEDFFBCF089510E02EEAC0DF10E0CF
:1001740025EDBDDF10E020E8BADF10E028EAB7DFA4
:1001840010E02FE3B4DF10E023EDB1DF10E020E056
:10019400AEDF10E020E4ABDF10E02DE8A8DF10E0D4
:1001A40024E1A5DF10E020E2A2DF10E020E09FDFE1
:1001B40010E021EA9CDF10E028EC99DF10E02AED42
:1001C40096DF10E022E193DF10E021E890DF10E0F9
:1001D4002FEC8DDF10E029ED8ADF10E021EF87DFBF
:1001E40010E02BED84DF10E020E481DF10E024EA4E
:1001F4007EDF10E026EA7BDF10E02FEA78DF089547
:1002040040ED58EC5A95F1F74A95E1F70895F894C2
:10021400B89AC09800004AD0C09AB898000057D045
:10022400B09942C060D0B09B3FC0B099FECFA0E669
:10023400B0E0002700936500112731E04427002730
:1002440000936600B09BFECF59D0B099432B330F77
:10025400B099FECF009166000395009366000830C4
:1002640089F7552768E0441F57956A95E1F7452FAC
:100274004D93009165000395009365000530E1F608
:100284000027A0E6B0E024E01D91010F2A95E1F7D4
:100294000093670011E01093680010916400011747
:1002A40019F0112710936800789408952F933F93C1
:1002B4004F9322E036E74EEF4A95F1F73A95E1F78E
:1002C4002A95D1F700004F913F912F9108952F93D4
:1002D4003F9322E039E13A95F1F72A95E1F70000DE
:1002E4003F912F9108952F933F9322E034EA3A955A
:1002F400F1F72A95E1F73F912F9108952F932CE977
:0A0304002A95F1F700002F910895EB
:107DAE00000000000000005F000000070007001444
:107DBE007F147F14242A7F2A122313086462364903
:107DCE005522500005030000001C224100004122F4
:107DDE001C0014083E081408083E08080050300025
:107DEE00000808080808006060000020100804025F
:107DFE003E5149453E00427F400042615149462175
:107E0E0041454B311814127F1027454545393C4AE0
:107E1E004949300171090503364949493606494930
:107E2E00291E003636000000563600000814224186
:107E3E0000141414141400412214080201510906EE
:107E4E00324979413E7E1111117E7F494949363EB4
:107E5E00414141227F4141221C7F494949417F09CD
:107E6E000909013E4149497A7F0808087F00417F90
:107E7E0041002040413F017F081422417F40404095
:107E8E00407F020C027F7F0408107F3E4141413E3D
:107E9E007F090909063E4151215E7F09192946468F
:107EAE004949493101017F01013F4040403F1F20B8
:107EBE0040201F3F4038403F63140814630708708A
:107ECE00080761514945430052656C656173652031
:107EDE00646174652031302E30372E3230323120CD
:087EEE0030303A35380A0D006E
:00000001FF
