:020000020000FC
:0200000029C015
:0200040018954D
:02000800189549
:02000C00189545
:02001000189541
:0200140018953D
:02001800189539
:02001C00189535
:02002000189531
:0200240018952D
:02002800189529
:02002C00189525
:02003000189521
:0200340018951D
:02003800189519
:02003C00189515
:02004000189511
:0200440018950D
:02004800189509
:02004C00189505
:02005000189501
:1000540000E000BD07E609B908E10AB906E800BDF9
:10006400E6E3FFE711D0E6E5FFE70ED0ECE7FFE7B4
:100074000BD010D046D0FDCF5D9BFECF0CB90895B8
:100084005F9BFECF0CB108950591003011F0F4DFB1
:10009400FBCF0895B89AC098000033D0C09AB8989E
:1000A400000040D0B0992CC049D0B09B29C0B09971
:1000B400FECFA0E6B0E000270093650011271C9353
:1000C40031E040E020E020936600B09BFECF41D0B9
:1000D400B099432B330FB099FECF2395209366003C
:1000E400283099F7552768E0441F57956A95E1F73A
:1000F400452F4D9303950093650000000530F1F6FC
:1001040008952F933F934F9322E036E74EEF4A959D
:10011400F1F73A95E1F72A95D1F700004F913F9115
:100124002F9108952F933F9322E039E13A95F1F707
:100134002A95E1F700003F912F9108952F933F9363
:1001440022E034EA3A95F1F72A95E1F73F912F91AD
:1001540008952F932CE92A95F1F700002F91089523
:107F360052656C6561736520646174652032332E09
:107F460030362E323032312030303A32310A0D009E
:107F5600546869732070726F6772616D206973204F
:107F660050726F626E696B2D3034206669726D7760
:107F76006172650A0D0050682E442E2053686D69A3
:0C7F8600726B6F204B2E412E200A0D0064
:00000001FF
