:020000020000FC
:0200000029C015
:0200040018954D
:02000800189549
:02000C00189545
:02001000189541
:0200140018953D
:02001800189539
:02001C00189535
:02002000189531
:0200240018952D
:02002800189529
:02002C00189525
:02003000189521
:0200340018951D
:02003800189519
:02003C00189515
:02004000189511
:0200440018950D
:02004800189509
:02004C00189505
:02005000189501
:1000540000E000BD07E609B908E10AB906E800BDF9
:1000640008E400B900E001B988D000E051D010E004
:1000740020EB45D010E020E042D010E020E13FD05A
:100084000F9300E000936A000F910F9300E0009338
:100094006B000F91E6EDFEE764D0C2D010D10FD112
:1000A400FCCF5D9BFECF0CB908955F9BFECF0CB1D6
:1000B40008950591003011F0F4DFFBCF08950F93FC
:1000C40004EA06BF18D00F9108950F9304E906BF00
:1000D4000F9108950F9303B904E806BF0CD00F9154
:1000E400089504EC06BF07D003B1089504E806BFE1
:1000F40002D003B1089506B707FFFDCF0895DFDFEF
:1001040008E7E8DF012FE6DF022FE4DFDEDF0895F2
:100114000F93D5DF08E7DEDF00E4DCDF0F9138E082
:1001240040E8D8DF4A95E9F73A95D1F7CEDF08954C
:10013400105225E0129FEF93FF93EEEAFDE7E00DE6
:10014400F11DBDDF08E7C6DF00E4C4DF15E005915B
:10015400C1DF1A95E1F70027BDDFB7DFFF91EF910B
:1001640008951591103011F0E3DFFBCF08950D9140
:10017400003011F0DDDFFBCF089510E02EEABFDF81
:1001840010E025EDBCDF10E020E8B9DF10E028EA3C
:10019400B6DF10E02FE3B3DF10E023EDB0DF10E0B3
:1001A40020E0ADDF10E020E4AADF10E02DE8A7DFB7
:1001B40010E024E1A4DF10E020E2A1DF10E020E061
:1001C4009EDF10E021EA9BDF10E028EC98DF10E0CE
:1001D4002AED95DF10E022E192DF10E021E88FDFC5
:1001E40010E02FEC8CDF10E029ED89DF10E021EF27
:1001F40086DF10E02BED83DF10E020E480DF10E0E9
:1002040024EA7DDF10E026EA7ADF10E02FEA77DFC8
:10021400089540ED58EC5A95F1F74A95E1F70895A1
:10022400F894B89AC09800004AD0C09AB8980000D0
:1002340057D0B09942C060D0B09B3FC0B099FECFB8
:10024400A0E6B0E0002700936500112731E04427C1
:10025400002700936600B09BFECF59D0B099432B82
:10026400330FB099FECF00916600039500936600AA
:10027400083089F7552768E0441F57956A95E1F7D8
:10028400452F4D930091650003950093650005305B
:10029400E1F60027A0E6B0E024E01D91010F2A95C5
:1002A400E1F70093670011E0109368001091640077
:1002B400011719F0112710936800789408952F936B
:1002C4003F934F9322E036E74EEF4A95F1F73A9584
:1002D400E1F72A95D1F700004F913F912F910895AE
:1002E4002F933F9322E039E13A95F1F72A95E1F70C
:1002F40000003F912F9108952F933F9322E034EA19
:100304003A95F1F72A95E1F73F912F9108952F93AC
:100314002CE92A95F1F700002F910895D0DE0EEE16
:10032400D9DE00EDD7DECBDE0FEED4DEDFDECDDEB0
:0603340000936C00089527
:107DAE00000000000000005F000000070007001444
:107DBE007F147F14242A7F2A122313086462364903
:107DCE005522500005030000001C224100004122F4
:107DDE001C0014083E081408083E08080050300025
:107DEE00000808080808006060000020100804025F
:107DFE003E5149453E00427F400042615149462175
:107E0E0041454B311814127F1027454545393C4AE0
:107E1E004949300171090503364949493606494930
:107E2E00291E003636000000563600000814224186
:107E3E0000141414141400412214080201510906EE
:107E4E00324979413E7E1111117E7F494949363EB4
:107E5E00414141227F4141221C7F494949417F09CD
:107E6E000909013E4149497A7F0808087F00417F90
:107E7E0041002040413F017F081422417F40404095
:107E8E00407F020C027F7F0408107F3E4141413E3D
:107E9E007F090909063E4151215E7F09192946468F
:107EAE004949493101017F01013F4040403F1F20B8
:107EBE0040201F3F4038403F63140814630708708A
:107ECE00080761514945430052454C4541534520F1
:107EDE00444154452032303231303731353134322D
:027EEE00390059
:00000001FF
